{
  "_format": "hh-sol-artifact-1",
  "contractName": "Faucet",
  "sourceName": "contracts/Faucet-flat.sol",
  "abi": [
    {
      "inputs": [
        {
          "internalType": "contract ERC20",
          "name": "_token",
          "type": "address"
        }
      ],
      "stateMutability": "nonpayable",
      "type": "constructor"
    },
    {
      "anonymous": false,
      "inputs": [
        {
          "indexed": true,
          "internalType": "address",
          "name": "previousOwner",
          "type": "address"
        },
        {
          "indexed": true,
          "internalType": "address",
          "name": "newOwner",
          "type": "address"
        }
      ],
      "name": "OwnershipTransferred",
      "type": "event"
    },
    {
      "anonymous": false,
      "inputs": [
        {
          "indexed": true,
          "internalType": "address",
          "name": "claimer",
          "type": "address"
        },
        {
          "indexed": false,
          "internalType": "uint256",
          "name": "claimTime",
          "type": "uint256"
        }
      ],
      "name": "TokenAirdropped",
      "type": "event"
    },
    {
      "inputs": [],
      "name": "claimTokens",
      "outputs": [],
      "stateMutability": "nonpayable",
      "type": "function"
    },
    {
      "inputs": [
        {
          "internalType": "uint256",
          "name": "amount",
          "type": "uint256"
        }
      ],
      "name": "depositToken",
      "outputs": [],
      "stateMutability": "nonpayable",
      "type": "function"
    },
    {
      "inputs": [],
      "name": "owner",
      "outputs": [
        {
          "internalType": "address",
          "name": "",
          "type": "address"
        }
      ],
      "stateMutability": "view",
      "type": "function"
    },
    {
      "inputs": [],
      "name": "renounceOwnership",
      "outputs": [],
      "stateMutability": "nonpayable",
      "type": "function"
    },
    {
      "inputs": [],
      "name": "token",
      "outputs": [
        {
          "internalType": "contract ERC20",
          "name": "",
          "type": "address"
        }
      ],
      "stateMutability": "view",
      "type": "function"
    },
    {
      "inputs": [
        {
          "internalType": "address",
          "name": "newOwner",
          "type": "address"
        }
      ],
      "name": "transferOwnership",
      "outputs": [],
      "stateMutability": "nonpayable",
      "type": "function"
    }
  ],
  "bytecode": "0x60806040523480156200001157600080fd5b5060405162000ec738038062000ec783398181016040528101906200003791906200025b565b620000576200004b6200011160201b60201c565b6200011960201b60201c565b600073ffffffffffffffffffffffffffffffffffffffff168173ffffffffffffffffffffffffffffffffffffffff1603620000c9576040517f08c379a0000000000000000000000000000000000000000000000000000000008152600401620000c09062000314565b60405180910390fd5b80600160006101000a81548173ffffffffffffffffffffffffffffffffffffffff021916908373ffffffffffffffffffffffffffffffffffffffff1602179055505062000336565b600033905090565b60008060009054906101000a900473ffffffffffffffffffffffffffffffffffffffff169050816000806101000a81548173ffffffffffffffffffffffffffffffffffffffff021916908373ffffffffffffffffffffffffffffffffffffffff1602179055508173ffffffffffffffffffffffffffffffffffffffff168173ffffffffffffffffffffffffffffffffffffffff167f8be0079c531659141344cd1fd0a4f28419497f9722a3daafe3b4186f6b6457e060405160405180910390a35050565b600080fd5b600073ffffffffffffffffffffffffffffffffffffffff82169050919050565b60006200020f82620001e2565b9050919050565b6000620002238262000202565b9050919050565b620002358162000216565b81146200024157600080fd5b50565b60008151905062000255816200022a565b92915050565b600060208284031215620002745762000273620001dd565b5b6000620002848482850162000244565b91505092915050565b600082825260208201905092915050565b7f546f6b656e20616464726573732063616e27742062652061646472657373207a60008201527f65726f0000000000000000000000000000000000000000000000000000000000602082015250565b6000620002fc6023836200028d565b915062000309826200029e565b604082019050919050565b600060208201905081810360008301526200032f81620002ed565b9050919050565b610b8180620003466000396000f3fe608060405234801561001057600080fd5b50600436106100625760003560e01c806348c54b9d146100675780636215be7714610071578063715018a61461008d5780638da5cb5b14610097578063f2fde38b146100b5578063fc0c546a146100d1575b600080fd5b61006f6100ef565b005b61008b60048036038101906100869190610655565b6102fe565b005b6100956103e2565b005b61009f6103f6565b6040516100ac91906106c3565b60405180910390f35b6100cf60048036038101906100ca919061070a565b61041f565b005b6100d96104a2565b6040516100e69190610796565b60405180910390f35b6000600260003373ffffffffffffffffffffffffffffffffffffffff1673ffffffffffffffffffffffffffffffffffffffff168152602001908152602001600020905062015180816000015461014591906107e0565b61014d6104c8565b1161018d576040517f08c379a000000000000000000000000000000000000000000000000000000000815260040161018490610897565b60405180910390fd5b6101956104c8565b81600001819055506802b5e3af16b18800008160010160008282546101ba91906107e0565b92505081905550600160009054906101000a900473ffffffffffffffffffffffffffffffffffffffff1673ffffffffffffffffffffffffffffffffffffffff1663a9059cbb336802b5e3af16b18800006040518363ffffffff1660e01b81526004016102279291906108f2565b6020604051808303816000875af1158015610246573d6000803e3d6000fd5b505050506040513d601f19601f8201168201806040525081019061026a9190610953565b6102a9576040517f08c379a00000000000000000000000000000000000000000000000000000000081526004016102a0906109cc565b60405180910390fd5b3373ffffffffffffffffffffffffffffffffffffffff167f9bdcd0cc5503fb9a8dd7311d9617e33108c4b7c8948cc544b16c1fd63c6f475b82600001546040516102f391906109fb565b60405180910390a250565b600160009054906101000a900473ffffffffffffffffffffffffffffffffffffffff1673ffffffffffffffffffffffffffffffffffffffff166323b872dd3330846040518463ffffffff1660e01b815260040161035d93929190610a16565b6020604051808303816000875af115801561037c573d6000803e3d6000fd5b505050506040513d601f19601f820116820180604052508101906103a09190610953565b6103df576040517f08c379a00000000000000000000000000000000000000000000000000000000081526004016103d6906109cc565b60405180910390fd5b50565b6103ea6104d0565b6103f4600061054e565b565b60008060009054906101000a900473ffffffffffffffffffffffffffffffffffffffff16905090565b6104276104d0565b600073ffffffffffffffffffffffffffffffffffffffff168173ffffffffffffffffffffffffffffffffffffffff1603610496576040517f08c379a000000000000000000000000000000000000000000000000000000000815260040161048d90610abf565b60405180910390fd5b61049f8161054e565b50565b600160009054906101000a900473ffffffffffffffffffffffffffffffffffffffff1681565b600042905090565b6104d8610612565b73ffffffffffffffffffffffffffffffffffffffff166104f66103f6565b73ffffffffffffffffffffffffffffffffffffffff161461054c576040517f08c379a000000000000000000000000000000000000000000000000000000000815260040161054390610b2b565b60405180910390fd5b565b60008060009054906101000a900473ffffffffffffffffffffffffffffffffffffffff169050816000806101000a81548173ffffffffffffffffffffffffffffffffffffffff021916908373ffffffffffffffffffffffffffffffffffffffff1602179055508173ffffffffffffffffffffffffffffffffffffffff168173ffffffffffffffffffffffffffffffffffffffff167f8be0079c531659141344cd1fd0a4f28419497f9722a3daafe3b4186f6b6457e060405160405180910390a35050565b600033905090565b600080fd5b6000819050919050565b6106328161061f565b811461063d57600080fd5b50565b60008135905061064f81610629565b92915050565b60006020828403121561066b5761066a61061a565b5b600061067984828501610640565b91505092915050565b600073ffffffffffffffffffffffffffffffffffffffff82169050919050565b60006106ad82610682565b9050919050565b6106bd816106a2565b82525050565b60006020820190506106d860008301846106b4565b92915050565b6106e7816106a2565b81146106f257600080fd5b50565b600081359050610704816106de565b92915050565b6000602082840312156107205761071f61061a565b5b600061072e848285016106f5565b91505092915050565b6000819050919050565b600061075c61075761075284610682565b610737565b610682565b9050919050565b600061076e82610741565b9050919050565b600061078082610763565b9050919050565b61079081610775565b82525050565b60006020820190506107ab6000830184610787565b92915050565b7f4e487b7100000000000000000000000000000000000000000000000000000000600052601160045260246000fd5b60006107eb8261061f565b91506107f68361061f565b925082820190508082111561080e5761080d6107b1565b5b92915050565b600082825260208201905092915050565b7f5573657220636c61696d6564206c657373207468616e20323420686f7572732060008201527f61676f0000000000000000000000000000000000000000000000000000000000602082015250565b6000610881602383610814565b915061088c82610825565b604082019050919050565b600060208201905081810360008301526108b081610874565b9050919050565b6000819050919050565b60006108dc6108d76108d2846108b7565b610737565b61061f565b9050919050565b6108ec816108c1565b82525050565b600060408201905061090760008301856106b4565b61091460208301846108e3565b9392505050565b60008115159050919050565b6109308161091b565b811461093b57600080fd5b50565b60008151905061094d81610927565b92915050565b6000602082840312156109695761096861061a565b5b60006109778482850161093e565b91505092915050565b7f546f6b656e207472616e73666572206661696c65642100000000000000000000600082015250565b60006109b6601683610814565b91506109c182610980565b602082019050919050565b600060208201905081810360008301526109e5816109a9565b9050919050565b6109f58161061f565b82525050565b6000602082019050610a1060008301846109ec565b92915050565b6000606082019050610a2b60008301866106b4565b610a3860208301856106b4565b610a4560408301846109ec565b949350505050565b7f4f776e61626c653a206e6577206f776e657220697320746865207a65726f206160008201527f6464726573730000000000000000000000000000000000000000000000000000602082015250565b6000610aa9602683610814565b9150610ab482610a4d565b604082019050919050565b60006020820190508181036000830152610ad881610a9c565b9050919050565b7f4f776e61626c653a2063616c6c6572206973206e6f7420746865206f776e6572600082015250565b6000610b15602083610814565b9150610b2082610adf565b602082019050919050565b60006020820190508181036000830152610b4481610b08565b905091905056fea2646970667358221220ff7ba588d2b1803e3ff48d541f1315b1840cb35c5a2ff7eb772874457ce555c964736f6c63430008100033",
  "linkReferences": {},
  "deployedLinkReferences": {}
}