{
  "_format": "hh-sol-artifact-1",
  "contractName": "tradeOffer",
  "sourceName": "contracts/tradeOffer.sol",
  "abi": [
    {
      "anonymous": false,
      "inputs": [
        {
          "indexed": false,
          "internalType": "uint256",
          "name": "offerId",
          "type": "uint256"
        },
        {
          "indexed": false,
          "internalType": "address",
          "name": "offerCreator",
          "type": "address"
        }
      ],
      "name": "OfferMade",
      "type": "event"
    },
    {
      "inputs": [
        {
          "internalType": "uint256",
          "name": "_offerAmount1",
          "type": "uint256"
        },
        {
          "internalType": "uint256",
          "name": "_offerAmount2",
          "type": "uint256"
        },
        {
          "internalType": "uint256",
          "name": "_offerAmount3",
          "type": "uint256"
        },
        {
          "internalType": "uint256",
          "name": "_offerAmount4",
          "type": "uint256"
        },
        {
          "internalType": "uint256",
          "name": "_offerAmount5",
          "type": "uint256"
        },
        {
          "internalType": "uint256",
          "name": "_wantedAmount1",
          "type": "uint256"
        },
        {
          "internalType": "uint256",
          "name": "_wantedAmount2",
          "type": "uint256"
        },
        {
          "internalType": "uint256",
          "name": "_wantedAmount3",
          "type": "uint256"
        },
        {
          "internalType": "uint256",
          "name": "_wantedAmount4",
          "type": "uint256"
        },
        {
          "internalType": "uint256",
          "name": "_wantedAmount5",
          "type": "uint256"
        }
      ],
      "name": "makeOffer",
      "outputs": [],
      "stateMutability": "payable",
      "type": "function"
    },
    {
      "inputs": [],
      "name": "token1",
      "outputs": [
        {
          "internalType": "address",
          "name": "",
          "type": "address"
        }
      ],
      "stateMutability": "view",
      "type": "function"
    },
    {
      "inputs": [],
      "name": "token2",
      "outputs": [
        {
          "internalType": "address",
          "name": "",
          "type": "address"
        }
      ],
      "stateMutability": "view",
      "type": "function"
    },
    {
      "inputs": [],
      "name": "token3",
      "outputs": [
        {
          "internalType": "address",
          "name": "",
          "type": "address"
        }
      ],
      "stateMutability": "view",
      "type": "function"
    },
    {
      "inputs": [],
      "name": "token4",
      "outputs": [
        {
          "internalType": "address",
          "name": "",
          "type": "address"
        }
      ],
      "stateMutability": "view",
      "type": "function"
    },
    {
      "inputs": [],
      "name": "token5",
      "outputs": [
        {
          "internalType": "address",
          "name": "",
          "type": "address"
        }
      ],
      "stateMutability": "view",
      "type": "function"
    }
  ],
  "bytecode": "0x60806040527361d620473acd26cb76c2867860479c9a18e630206000806101000a81548173ffffffffffffffffffffffffffffffffffffffff021916908373ffffffffffffffffffffffffffffffffffffffff16021790555073b41e3ce9a37643d7b4a67f62126468f1c6f70364600160006101000a81548173ffffffffffffffffffffffffffffffffffffffff021916908373ffffffffffffffffffffffffffffffffffffffff1602179055507317864b7bf61073df9ed6c0ee90f8117687c2ade6600260006101000a81548173ffffffffffffffffffffffffffffffffffffffff021916908373ffffffffffffffffffffffffffffffffffffffff16021790555073fe2f637036b869d7f296708baad3622c53f0d97d600360006101000a81548173ffffffffffffffffffffffffffffffffffffffff021916908373ffffffffffffffffffffffffffffffffffffffff1602179055507380ff8a9a77f78fc413015068a858f7a56848480a600460006101000a81548173ffffffffffffffffffffffffffffffffffffffff021916908373ffffffffffffffffffffffffffffffffffffffff1602179055503480156101b857600080fd5b50610dcb806101c86000396000f3fe6080604052600436106100555760003560e01c806325be124e1461005a5780635b6f5e531461008557806379950f55146100b0578063d21220a7146100db578063ef14101e14610106578063f834ec5a14610131575b600080fd5b34801561006657600080fd5b5061006f61014d565b60405161007c91906108f3565b60405180910390f35b34801561009157600080fd5b5061009a610173565b6040516100a791906108f3565b60405180910390f35b3480156100bc57600080fd5b506100c5610199565b6040516100d291906108f3565b60405180910390f35b3480156100e757600080fd5b506100f06101bf565b6040516100fd91906108f3565b60405180910390f35b34801561011257600080fd5b5061011b6101e3565b60405161012891906108f3565b60405180910390f35b61014b60048036038101906101469190610949565b610209565b005b600160009054906101000a900473ffffffffffffffffffffffffffffffffffffffff1681565b600460009054906101000a900473ffffffffffffffffffffffffffffffffffffffff1681565b600360009054906101000a900473ffffffffffffffffffffffffffffffffffffffff1681565b60008054906101000a900473ffffffffffffffffffffffffffffffffffffffff1681565b600260009054906101000a900473ffffffffffffffffffffffffffffffffffffffff1681565b60008a11806102185750600089115b806102235750600088115b8061022e5750600087115b806102395750600086115b80156102715750600085118061024f5750600084115b8061025a5750600083115b806102655750600082115b806102705750600081115b5b6102b0576040517f08c379a00000000000000000000000000000000000000000000000000000000081526004016102a790610a85565b60405180910390fd5b6102ba600661088e565b6000600560006102ca60066108a4565b815260200190815260200160002090506102e460066108a4565b8160000181905550338160010160006101000a81548173ffffffffffffffffffffffffffffffffffffffff021916908373ffffffffffffffffffffffffffffffffffffffff1602179055508a81600201819055508981600301819055508881600401819055508781600501819055508681600601819055508581600701819055508481600801819055508381600901819055508281600a01819055508181600b01819055504281600c0181905550600181600d0160006101000a81548160ff02191690831515021790555060008b11156104985760008054906101000a900473ffffffffffffffffffffffffffffffffffffffff1673ffffffffffffffffffffffffffffffffffffffff166323b872dd33308e6040518463ffffffff1660e01b815260040161041593929190610ab4565b6020604051808303816000875af1158015610434573d6000803e3d6000fd5b505050506040513d601f19601f820116820180604052508101906104589190610b23565b610497576040517f08c379a000000000000000000000000000000000000000000000000000000000815260040161048e90610b9c565b60405180910390fd5b5b60008a111561058357600160009054906101000a900473ffffffffffffffffffffffffffffffffffffffff1673ffffffffffffffffffffffffffffffffffffffff166323b872dd33308d6040518463ffffffff1660e01b815260040161050093929190610ab4565b6020604051808303816000875af115801561051f573d6000803e3d6000fd5b505050506040513d601f19601f820116820180604052508101906105439190610b23565b610582576040517f08c379a000000000000000000000000000000000000000000000000000000000815260040161057990610c08565b60405180910390fd5b5b600089111561066e57600260009054906101000a900473ffffffffffffffffffffffffffffffffffffffff1673ffffffffffffffffffffffffffffffffffffffff166323b872dd33308c6040518463ffffffff1660e01b81526004016105eb93929190610ab4565b6020604051808303816000875af115801561060a573d6000803e3d6000fd5b505050506040513d601f19601f8201168201806040525081019061062e9190610b23565b61066d576040517f08c379a000000000000000000000000000000000000000000000000000000000815260040161066490610c74565b60405180910390fd5b5b600088111561075957600360009054906101000a900473ffffffffffffffffffffffffffffffffffffffff1673ffffffffffffffffffffffffffffffffffffffff166323b872dd33308b6040518463ffffffff1660e01b81526004016106d693929190610ab4565b6020604051808303816000875af11580156106f5573d6000803e3d6000fd5b505050506040513d601f19601f820116820180604052508101906107199190610b23565b610758576040517f08c379a000000000000000000000000000000000000000000000000000000000815260040161074f90610ce0565b60405180910390fd5b5b600087111561084457600460009054906101000a900473ffffffffffffffffffffffffffffffffffffffff1673ffffffffffffffffffffffffffffffffffffffff166323b872dd33308a6040518463ffffffff1660e01b81526004016107c193929190610ab4565b6020604051808303816000875af11580156107e0573d6000803e3d6000fd5b505050506040513d601f19601f820116820180604052508101906108049190610b23565b610843576040517f08c379a000000000000000000000000000000000000000000000000000000000815260040161083a90610d4c565b60405180910390fd5b5b7f27d9b4097af9b588b7ce5c1fae79f7d2798678748d30a2009b05cde0979d7bfc816000015433604051610879929190610d6c565b60405180910390a15050505050505050505050565b6001816000016000828254019250508190555050565b600081600001549050919050565b600073ffffffffffffffffffffffffffffffffffffffff82169050919050565b60006108dd826108b2565b9050919050565b6108ed816108d2565b82525050565b600060208201905061090860008301846108e4565b92915050565b600080fd5b6000819050919050565b61092681610913565b811461093157600080fd5b50565b6000813590506109438161091d565b92915050565b6000806000806000806000806000806101408b8d03121561096d5761096c61090e565b5b600061097b8d828e01610934565b9a5050602061098c8d828e01610934565b995050604061099d8d828e01610934565b98505060606109ae8d828e01610934565b97505060806109bf8d828e01610934565b96505060a06109d08d828e01610934565b95505060c06109e18d828e01610934565b94505060e06109f28d828e01610934565b935050610100610a048d828e01610934565b925050610120610a168d828e01610934565b9150509295989b9194979a5092959850565b600082825260208201905092915050565b7f496e76616c6964206f6666657200000000000000000000000000000000000000600082015250565b6000610a6f600d83610a28565b9150610a7a82610a39565b602082019050919050565b60006020820190508181036000830152610a9e81610a62565b9050919050565b610aae81610913565b82525050565b6000606082019050610ac960008301866108e4565b610ad660208301856108e4565b610ae36040830184610aa5565b949350505050565b60008115159050919050565b610b0081610aeb565b8114610b0b57600080fd5b50565b600081519050610b1d81610af7565b92915050565b600060208284031215610b3957610b3861090e565b5b6000610b4784828501610b0e565b91505092915050565b7f546f6b656e2031207472616e73666572206661696c6564000000000000000000600082015250565b6000610b86601783610a28565b9150610b9182610b50565b602082019050919050565b60006020820190508181036000830152610bb581610b79565b9050919050565b7f546f6b656e2032207472616e73666572206661696c6564000000000000000000600082015250565b6000610bf2601783610a28565b9150610bfd82610bbc565b602082019050919050565b60006020820190508181036000830152610c2181610be5565b9050919050565b7f546f6b656e2033207472616e73666572206661696c6564000000000000000000600082015250565b6000610c5e601783610a28565b9150610c6982610c28565b602082019050919050565b60006020820190508181036000830152610c8d81610c51565b9050919050565b7f546f6b656e2034207472616e73666572206661696c6564000000000000000000600082015250565b6000610cca601783610a28565b9150610cd582610c94565b602082019050919050565b60006020820190508181036000830152610cf981610cbd565b9050919050565b7f546f6b656e2035207472616e73666572206661696c6564000000000000000000600082015250565b6000610d36601783610a28565b9150610d4182610d00565b602082019050919050565b60006020820190508181036000830152610d6581610d29565b9050919050565b6000604082019050610d816000830185610aa5565b610d8e60208301846108e4565b939250505056fea2646970667358221220ebdb9742f8680a6da84e72028f696cbf07bb3d46799a0b8f9624a5325973762e64736f6c63430008100033",
  "linkReferences": {},
  "deployedLinkReferences": {}
}