{
  "_format": "hh-sol-artifact-1",
  "contractName": "tradeOffer",
  "sourceName": "contracts/tradeOffer.sol",
  "abi": [
    {
      "inputs": [
        {
          "internalType": "uint256",
          "name": "_offerId",
          "type": "uint256"
        }
      ],
      "name": "acceptOffer",
      "outputs": [],
      "stateMutability": "nonpayable",
      "type": "function"
    },
    {
      "inputs": [
        {
          "internalType": "uint256",
          "name": "_offerId",
          "type": "uint256"
        }
      ],
      "name": "cancelOffer",
      "outputs": [],
      "stateMutability": "nonpayable",
      "type": "function"
    },
    {
      "inputs": [],
      "name": "getContractAssets",
      "outputs": [
        {
          "internalType": "uint256",
          "name": "Wood",
          "type": "uint256"
        },
        {
          "internalType": "uint256",
          "name": "Rock",
          "type": "uint256"
        },
        {
          "internalType": "uint256",
          "name": "Clay",
          "type": "uint256"
        },
        {
          "internalType": "uint256",
          "name": "Wool",
          "type": "uint256"
        },
        {
          "internalType": "uint256",
          "name": "Fish",
          "type": "uint256"
        }
      ],
      "stateMutability": "view",
      "type": "function"
    },
    {
      "inputs": [],
      "name": "getNumberOfOffers",
      "outputs": [
        {
          "internalType": "uint256",
          "name": "",
          "type": "uint256"
        }
      ],
      "stateMutability": "view",
      "type": "function"
    },
    {
      "inputs": [
        {
          "internalType": "uint256",
          "name": "_offerId",
          "type": "uint256"
        }
      ],
      "name": "getOffer",
      "outputs": [
        {
          "internalType": "uint256",
          "name": "",
          "type": "uint256"
        },
        {
          "internalType": "uint256",
          "name": "",
          "type": "uint256"
        },
        {
          "internalType": "uint256",
          "name": "",
          "type": "uint256"
        },
        {
          "internalType": "uint256",
          "name": "",
          "type": "uint256"
        },
        {
          "internalType": "uint256",
          "name": "",
          "type": "uint256"
        },
        {
          "internalType": "uint256",
          "name": "",
          "type": "uint256"
        },
        {
          "internalType": "uint256",
          "name": "",
          "type": "uint256"
        },
        {
          "internalType": "uint256",
          "name": "",
          "type": "uint256"
        },
        {
          "internalType": "uint256",
          "name": "",
          "type": "uint256"
        },
        {
          "internalType": "uint256",
          "name": "",
          "type": "uint256"
        }
      ],
      "stateMutability": "view",
      "type": "function"
    },
    {
      "inputs": [
        {
          "internalType": "uint256",
          "name": "_offerId",
          "type": "uint256"
        }
      ],
      "name": "getOfferCreator",
      "outputs": [
        {
          "internalType": "bool",
          "name": "",
          "type": "bool"
        }
      ],
      "stateMutability": "view",
      "type": "function"
    },
    {
      "inputs": [],
      "name": "getOfferCreatorsArray",
      "outputs": [
        {
          "internalType": "bool[]",
          "name": "",
          "type": "bool[]"
        }
      ],
      "stateMutability": "view",
      "type": "function"
    },
    {
      "inputs": [
        {
          "internalType": "uint256",
          "name": "_offerId",
          "type": "uint256"
        }
      ],
      "name": "getOfferStatus",
      "outputs": [
        {
          "internalType": "bool",
          "name": "",
          "type": "bool"
        }
      ],
      "stateMutability": "view",
      "type": "function"
    },
    {
      "inputs": [],
      "name": "getOfferStatusArray",
      "outputs": [
        {
          "internalType": "bool[]",
          "name": "",
          "type": "bool[]"
        }
      ],
      "stateMutability": "view",
      "type": "function"
    },
    {
      "inputs": [
        {
          "internalType": "uint256",
          "name": "_offerId",
          "type": "uint256"
        }
      ],
      "name": "getOfferString",
      "outputs": [
        {
          "internalType": "string",
          "name": "",
          "type": "string"
        }
      ],
      "stateMutability": "view",
      "type": "function"
    },
    {
      "inputs": [],
      "name": "getOfferStringsArray",
      "outputs": [
        {
          "internalType": "string[]",
          "name": "",
          "type": "string[]"
        }
      ],
      "stateMutability": "view",
      "type": "function"
    },
    {
      "inputs": [
        {
          "internalType": "uint256",
          "name": "_offerAmount1",
          "type": "uint256"
        },
        {
          "internalType": "uint256",
          "name": "_offerAmount2",
          "type": "uint256"
        },
        {
          "internalType": "uint256",
          "name": "_offerAmount3",
          "type": "uint256"
        },
        {
          "internalType": "uint256",
          "name": "_offerAmount4",
          "type": "uint256"
        },
        {
          "internalType": "uint256",
          "name": "_offerAmount5",
          "type": "uint256"
        },
        {
          "internalType": "uint256",
          "name": "_wantedAmount1",
          "type": "uint256"
        },
        {
          "internalType": "uint256",
          "name": "_wantedAmount2",
          "type": "uint256"
        },
        {
          "internalType": "uint256",
          "name": "_wantedAmount3",
          "type": "uint256"
        },
        {
          "internalType": "uint256",
          "name": "_wantedAmount4",
          "type": "uint256"
        },
        {
          "internalType": "uint256",
          "name": "_wantedAmount5",
          "type": "uint256"
        }
      ],
      "name": "makeOffer",
      "outputs": [],
      "stateMutability": "payable",
      "type": "function"
    },
    {
      "inputs": [],
      "name": "token1",
      "outputs": [
        {
          "internalType": "address",
          "name": "",
          "type": "address"
        }
      ],
      "stateMutability": "view",
      "type": "function"
    },
    {
      "inputs": [],
      "name": "token2",
      "outputs": [
        {
          "internalType": "address",
          "name": "",
          "type": "address"
        }
      ],
      "stateMutability": "view",
      "type": "function"
    },
    {
      "inputs": [],
      "name": "token3",
      "outputs": [
        {
          "internalType": "address",
          "name": "",
          "type": "address"
        }
      ],
      "stateMutability": "view",
      "type": "function"
    },
    {
      "inputs": [],
      "name": "token4",
      "outputs": [
        {
          "internalType": "address",
          "name": "",
          "type": "address"
        }
      ],
      "stateMutability": "view",
      "type": "function"
    },
    {
      "inputs": [],
      "name": "token5",
      "outputs": [
        {
          "internalType": "address",
          "name": "",
          "type": "address"
        }
      ],
      "stateMutability": "view",
      "type": "function"
    },
    {
      "inputs": [
        {
          "internalType": "uint256",
          "name": "_offerId",
          "type": "uint256"
        }
      ],
      "name": "withdraw",
      "outputs": [],
      "stateMutability": "payable",
      "type": "function"
    }
  ],
  "bytecode": "0x608060405273fe2f637036b869d7f296708baad3622c53f0d97d6000806101000a81548173ffffffffffffffffffffffffffffffffffffffff021916908373ffffffffffffffffffffffffffffffffffffffff1602179055507317864b7bf61073df9ed6c0ee90f8117687c2ade6600160006101000a81548173ffffffffffffffffffffffffffffffffffffffff021916908373ffffffffffffffffffffffffffffffffffffffff16021790555073b41e3ce9a37643d7b4a67f62126468f1c6f70364600260006101000a81548173ffffffffffffffffffffffffffffffffffffffff021916908373ffffffffffffffffffffffffffffffffffffffff1602179055507380ff8a9a77f78fc413015068a858f7a56848480a600360006101000a81548173ffffffffffffffffffffffffffffffffffffffff021916908373ffffffffffffffffffffffffffffffffffffffff1602179055507361d620473acd26cb76c2867860479c9a18e63020600460006101000a81548173ffffffffffffffffffffffffffffffffffffffff021916908373ffffffffffffffffffffffffffffffffffffffff1602179055503480156101b857600080fd5b506146a0806101c86000396000f3fe6080604052600436106101095760003560e01c8063c491f8df11610095578063dc2d98d211610064578063dc2d98d21461036f578063ef14101e146103ac578063ef706adf146103d7578063f834ec5a14610400578063fae254441461041c57610109565b8063c491f8df146102c5578063c815729d146102f0578063cce3785f14610319578063d21220a71461034457610109565b80635c62455f116100dc5780635c62455f146101c657806377e67f2d146101f557806379950f5514610220578063b4543fbe1461024b578063b53408e81461028857610109565b806325be124e1461010e5780632e1a7d4d146101395780634579268a146101555780635b6f5e531461019b575b600080fd5b34801561011a57600080fd5b50610123610447565b60405161013091906132e1565b60405180910390f35b610153600480360381019061014e9190613337565b61046d565b005b34801561016157600080fd5b5061017c60048036038101906101779190613337565b610b9d565b6040516101929a99989796959493929190613373565b60405180910390f35b3480156101a757600080fd5b506101b0610c17565b6040516101bd91906132e1565b60405180910390f35b3480156101d257600080fd5b506101db610c3d565b6040516101ec95949392919061340f565b60405180910390f35b34801561020157600080fd5b5061020a610fdc565b604051610217919061352c565b60405180910390f35b34801561022c57600080fd5b5061023561108c565b60405161024291906132e1565b60405180910390f35b34801561025757600080fd5b50610272600480360381019061026d9190613337565b6110b2565b60405161027f919061355d565b60405180910390f35b34801561029457600080fd5b506102af60048036038101906102aa9190613337565b611120565b6040516102bc9190613608565b60405180910390f35b3480156102d157600080fd5b506102da6113b3565b6040516102e79190613736565b60405180910390f35b3480156102fc57600080fd5b5061031760048036038101906103129190613337565b611461565b005b34801561032557600080fd5b5061032e612055565b60405161033b919061352c565b60405180910390f35b34801561035057600080fd5b50610359612161565b60405161036691906132e1565b60405180910390f35b34801561037b57600080fd5b5061039660048036038101906103919190613337565b612185565b6040516103a3919061355d565b60405180910390f35b3480156103b857600080fd5b506103c16121b2565b6040516103ce91906132e1565b60405180910390f35b3480156103e357600080fd5b506103fe60048036038101906103f99190613337565b6121d8565b005b61041a60048036038101906104159190613758565b612928565b005b34801561042857600080fd5b506104316130d9565b60405161043e9190613837565b60405180910390f35b600160009054906101000a900473ffffffffffffffffffffffffffffffffffffffff1681565b60008110156104b1576040517f08c379a00000000000000000000000000000000000000000000000000000000081526004016104a89061389e565b60405180910390fd5b6001151560056000838152602001908152602001600020600d0160009054906101000a900460ff1615151461051b576040517f08c379a00000000000000000000000000000000000000000000000000000000081526004016105129061390a565b60405180910390fd5b6005600082815260200190815260200160002060010160009054906101000a900473ffffffffffffffffffffffffffffffffffffffff1673ffffffffffffffffffffffffffffffffffffffff163373ffffffffffffffffffffffffffffffffffffffff16146105bf576040517f08c379a00000000000000000000000000000000000000000000000000000000081526004016105b69061399c565b60405180910390fd5b60006005600083815260200190815260200160002090506000816002015411156106d85760008054906101000a900473ffffffffffffffffffffffffffffffffffffffff1673ffffffffffffffffffffffffffffffffffffffff1663a9059cbb33670de0b6b3a7640000846002015461063891906139eb565b6040518363ffffffff1660e01b8152600401610655929190613a45565b6020604051808303816000875af1158015610674573d6000803e3d6000fd5b505050506040513d601f19601f820116820180604052508101906106989190613a9a565b6106d7576040517f08c379a00000000000000000000000000000000000000000000000000000000081526004016106ce90613b13565b60405180910390fd5b5b6000816003015411156107dc57600160009054906101000a900473ffffffffffffffffffffffffffffffffffffffff1673ffffffffffffffffffffffffffffffffffffffff1663a9059cbb33670de0b6b3a7640000846003015461073c91906139eb565b6040518363ffffffff1660e01b8152600401610759929190613a45565b6020604051808303816000875af1158015610778573d6000803e3d6000fd5b505050506040513d601f19601f8201168201806040525081019061079c9190613a9a565b6107db576040517f08c379a00000000000000000000000000000000000000000000000000000000081526004016107d290613b7f565b60405180910390fd5b5b6000816004015411156108e057600260009054906101000a900473ffffffffffffffffffffffffffffffffffffffff1673ffffffffffffffffffffffffffffffffffffffff1663a9059cbb33670de0b6b3a7640000846004015461084091906139eb565b6040518363ffffffff1660e01b815260040161085d929190613a45565b6020604051808303816000875af115801561087c573d6000803e3d6000fd5b505050506040513d601f19601f820116820180604052508101906108a09190613a9a565b6108df576040517f08c379a00000000000000000000000000000000000000000000000000000000081526004016108d690613beb565b60405180910390fd5b5b6000816005015411156109e457600360009054906101000a900473ffffffffffffffffffffffffffffffffffffffff1673ffffffffffffffffffffffffffffffffffffffff1663a9059cbb33670de0b6b3a7640000846005015461094491906139eb565b6040518363ffffffff1660e01b8152600401610961929190613a45565b6020604051808303816000875af1158015610980573d6000803e3d6000fd5b505050506040513d601f19601f820116820180604052508101906109a49190613a9a565b6109e3576040517f08c379a00000000000000000000000000000000000000000000000000000000081526004016109da90613c57565b60405180910390fd5b5b600081600601541115610ae857600460009054906101000a900473ffffffffffffffffffffffffffffffffffffffff1673ffffffffffffffffffffffffffffffffffffffff1663a9059cbb33670de0b6b3a76400008460060154610a4891906139eb565b6040518363ffffffff1660e01b8152600401610a65929190613a45565b6020604051808303816000875af1158015610a84573d6000803e3d6000fd5b505050506040513d601f19601f82011682018060405250810190610aa89190613a9a565b610ae7576040517f08c379a0000000000000000000000000000000000000000000000000000000008152600401610ade90613cc3565b60405180910390fd5b5b600560008381526020019081526020016000206000808201600090556001820160006101000a81549073ffffffffffffffffffffffffffffffffffffffff021916905560028201600090556003820160009055600482016000905560058201600090556006820160009055600782016000905560088201600090556009820160009055600a820160009055600b820160009055600c820160009055600d820160006101000a81549060ff021916905550505050565b6000806000806000806000806000806000600560008d815260200190815260200160002090508060020154816003015482600401548360050154846006015485600701548660080154876009015488600a015489600b01549a509a509a509a509a509a509a509a509a509a50509193959799509193959799565b600460009054906101000a900473ffffffffffffffffffffffffffffffffffffffff1681565b600080600080600080670de0b6b3a764000060008054906101000a900473ffffffffffffffffffffffffffffffffffffffff1673ffffffffffffffffffffffffffffffffffffffff166370a08231306040518263ffffffff1660e01b8152600401610ca891906132e1565b602060405180830381865afa158015610cc5573d6000803e3d6000fd5b505050506040513d601f19601f82011682018060405250810190610ce99190613cf8565b610cf39190613d54565b90506000670de0b6b3a7640000600160009054906101000a900473ffffffffffffffffffffffffffffffffffffffff1673ffffffffffffffffffffffffffffffffffffffff166370a08231306040518263ffffffff1660e01b8152600401610d5b91906132e1565b602060405180830381865afa158015610d78573d6000803e3d6000fd5b505050506040513d601f19601f82011682018060405250810190610d9c9190613cf8565b610da69190613d54565b90506000670de0b6b3a7640000600260009054906101000a900473ffffffffffffffffffffffffffffffffffffffff1673ffffffffffffffffffffffffffffffffffffffff166370a08231306040518263ffffffff1660e01b8152600401610e0e91906132e1565b602060405180830381865afa158015610e2b573d6000803e3d6000fd5b505050506040513d601f19601f82011682018060405250810190610e4f9190613cf8565b610e599190613d54565b90506000670de0b6b3a7640000600360009054906101000a900473ffffffffffffffffffffffffffffffffffffffff1673ffffffffffffffffffffffffffffffffffffffff166370a08231306040518263ffffffff1660e01b8152600401610ec191906132e1565b602060405180830381865afa158015610ede573d6000803e3d6000fd5b505050506040513d601f19601f82011682018060405250810190610f029190613cf8565b610f0c9190613d54565b90506000670de0b6b3a7640000600460009054906101000a900473ffffffffffffffffffffffffffffffffffffffff1673ffffffffffffffffffffffffffffffffffffffff166370a08231306040518263ffffffff1660e01b8152600401610f7491906132e1565b602060405180830381865afa158015610f91573d6000803e3d6000fd5b505050506040513d601f19601f82011682018060405250810190610fb59190613cf8565b610fbf9190613d54565b905084848484849950995099509950995050505050509091929394565b60606000610fe86130d9565b905060008167ffffffffffffffff81111561100657611005613d85565b5b6040519080825280602002602001820160405280156110345781602001602082028036833780820191505090505b50905060005b828110156110835761104b81612185565b82828151811061105e5761105d613db4565b5b602002602001019015159081151581525050808061107b90613de3565b91505061103a565b50809250505090565b600360009054906101000a900473ffffffffffffffffffffffffffffffffffffffff1681565b60006005600083815260200190815260200160002060010160009054906101000a900473ffffffffffffffffffffffffffffffffffffffff1673ffffffffffffffffffffffffffffffffffffffff163373ffffffffffffffffffffffffffffffffffffffff16149050919050565b606060008060008060008060008060008061113a8c610b9d565b9950995099509950995099509950995099509950600060405180602001604052806000815250905060008b111561119857806111758c61311c565b604051602001611186929190613eb3565b60405160208183030381529060405290505b60008a11156111ce57806111ab8b61311c565b6040516020016111bc929190613f2e565b60405160208183030381529060405290505b600089111561120457806111e18a61311c565b6040516020016111f2929190613fa9565b60405160208183030381529060405290505b600088111561123a57806112178961311c565b604051602001611228929190614024565b60405160208183030381529060405290505b6000871115611270578061124d8861311c565b60405160200161125e92919061409f565b60405160208183030381529060405290505b80604051602001611281919061411a565b604051602081830303815290604052905060008611156112c857806112a58761311c565b6040516020016112b6929190613eb3565b60405160208183030381529060405290505b60008511156112fe57806112db8661311c565b6040516020016112ec929190613f2e565b60405160208183030381529060405290505b600084111561133457806113118561311c565b604051602001611322929190613fa9565b60405160208183030381529060405290505b600083111561136a57806113478461311c565b604051602001611358929190614024565b60405160208183030381529060405290505b60008211156113a0578061137d8361311c565b60405160200161138e92919061409f565b60405160208183030381529060405290505b809b505050505050505050505050919050565b606060006113bf6130d9565b905060008167ffffffffffffffff8111156113dd576113dc613d85565b5b60405190808252806020026020018201604052801561141057816020015b60608152602001906001900390816113fb5790505b50905060005b828110156114585761142781611120565b82828151811061143a57611439613db4565b5b6020026020010181905250808061145090613de3565b915050611416565b50809250505090565b60008110156114a5576040517f08c379a000000000000000000000000000000000000000000000000000000000815260040161149c9061389e565b60405180910390fd5b6001151560056000838152602001908152602001600020600d0160009054906101000a900460ff1615151461150f576040517f08c379a000000000000000000000000000000000000000000000000000000000815260040161150690614188565b60405180910390fd5b6005600082815260200190815260200160002060010160009054906101000a900473ffffffffffffffffffffffffffffffffffffffff1673ffffffffffffffffffffffffffffffffffffffff163373ffffffffffffffffffffffffffffffffffffffff16036115b3576040517f08c379a00000000000000000000000000000000000000000000000000000000081526004016115aa906141f4565b60405180910390fd5b60006005600083815260200190815260200160002060010160009054906101000a900473ffffffffffffffffffffffffffffffffffffffff16905060006005600084815260200190815260200160002090506000816002015411156117075760008054906101000a900473ffffffffffffffffffffffffffffffffffffffff1673ffffffffffffffffffffffffffffffffffffffff1663a9059cbb33670de0b6b3a7640000846002015461166791906139eb565b6040518363ffffffff1660e01b8152600401611684929190613a45565b6020604051808303816000875af11580156116a3573d6000803e3d6000fd5b505050506040513d601f19601f820116820180604052508101906116c79190613a9a565b611706576040517f08c379a00000000000000000000000000000000000000000000000000000000081526004016116fd90613b13565b60405180910390fd5b5b60008160030154111561180b57600160009054906101000a900473ffffffffffffffffffffffffffffffffffffffff1673ffffffffffffffffffffffffffffffffffffffff1663a9059cbb33670de0b6b3a7640000846003015461176b91906139eb565b6040518363ffffffff1660e01b8152600401611788929190613a45565b6020604051808303816000875af11580156117a7573d6000803e3d6000fd5b505050506040513d601f19601f820116820180604052508101906117cb9190613a9a565b61180a576040517f08c379a000000000000000000000000000000000000000000000000000000000815260040161180190613b7f565b60405180910390fd5b5b60008160040154111561190f57600260009054906101000a900473ffffffffffffffffffffffffffffffffffffffff1673ffffffffffffffffffffffffffffffffffffffff1663a9059cbb33670de0b6b3a7640000846004015461186f91906139eb565b6040518363ffffffff1660e01b815260040161188c929190613a45565b6020604051808303816000875af11580156118ab573d6000803e3d6000fd5b505050506040513d601f19601f820116820180604052508101906118cf9190613a9a565b61190e576040517f08c379a000000000000000000000000000000000000000000000000000000000815260040161190590613beb565b60405180910390fd5b5b600081600501541115611a1357600360009054906101000a900473ffffffffffffffffffffffffffffffffffffffff1673ffffffffffffffffffffffffffffffffffffffff1663a9059cbb33670de0b6b3a7640000846005015461197391906139eb565b6040518363ffffffff1660e01b8152600401611990929190613a45565b6020604051808303816000875af11580156119af573d6000803e3d6000fd5b505050506040513d601f19601f820116820180604052508101906119d39190613a9a565b611a12576040517f08c379a0000000000000000000000000000000000000000000000000000000008152600401611a0990613c57565b60405180910390fd5b5b600081600601541115611b1757600460009054906101000a900473ffffffffffffffffffffffffffffffffffffffff1673ffffffffffffffffffffffffffffffffffffffff1663a9059cbb33670de0b6b3a76400008460060154611a7791906139eb565b6040518363ffffffff1660e01b8152600401611a94929190613a45565b6020604051808303816000875af1158015611ab3573d6000803e3d6000fd5b505050506040513d601f19601f82011682018060405250810190611ad79190613a9a565b611b16576040517f08c379a0000000000000000000000000000000000000000000000000000000008152600401611b0d90613cc3565b60405180910390fd5b5b600081600701541115611c1b5760008054906101000a900473ffffffffffffffffffffffffffffffffffffffff1673ffffffffffffffffffffffffffffffffffffffff166323b872dd3384670de0b6b3a76400008560070154611b7a91906139eb565b6040518463ffffffff1660e01b8152600401611b9893929190614214565b6020604051808303816000875af1158015611bb7573d6000803e3d6000fd5b505050506040513d601f19601f82011682018060405250810190611bdb9190613a9a565b611c1a576040517f08c379a0000000000000000000000000000000000000000000000000000000008152600401611c1190613b13565b60405180910390fd5b5b600081600801541115611d2157600160009054906101000a900473ffffffffffffffffffffffffffffffffffffffff1673ffffffffffffffffffffffffffffffffffffffff166323b872dd3384670de0b6b3a76400008560080154611c8091906139eb565b6040518463ffffffff1660e01b8152600401611c9e93929190614214565b6020604051808303816000875af1158015611cbd573d6000803e3d6000fd5b505050506040513d601f19601f82011682018060405250810190611ce19190613a9a565b611d20576040517f08c379a0000000000000000000000000000000000000000000000000000000008152600401611d1790613b7f565b60405180910390fd5b5b600081600901541115611e2757600260009054906101000a900473ffffffffffffffffffffffffffffffffffffffff1673ffffffffffffffffffffffffffffffffffffffff166323b872dd3384670de0b6b3a76400008560090154611d8691906139eb565b6040518463ffffffff1660e01b8152600401611da493929190614214565b6020604051808303816000875af1158015611dc3573d6000803e3d6000fd5b505050506040513d601f19601f82011682018060405250810190611de79190613a9a565b611e26576040517f08c379a0000000000000000000000000000000000000000000000000000000008152600401611e1d90613beb565b60405180910390fd5b5b600081600a01541115611f2d57600360009054906101000a900473ffffffffffffffffffffffffffffffffffffffff1673ffffffffffffffffffffffffffffffffffffffff166323b872dd3384670de0b6b3a764000085600a0154611e8c91906139eb565b6040518463ffffffff1660e01b8152600401611eaa93929190614214565b6020604051808303816000875af1158015611ec9573d6000803e3d6000fd5b505050506040513d601f19601f82011682018060405250810190611eed9190613a9a565b611f2c576040517f08c379a0000000000000000000000000000000000000000000000000000000008152600401611f2390613c57565b60405180910390fd5b5b600081600b0154111561203357600460009054906101000a900473ffffffffffffffffffffffffffffffffffffffff1673ffffffffffffffffffffffffffffffffffffffff166323b872dd3384670de0b6b3a764000085600b0154611f9291906139eb565b6040518463ffffffff1660e01b8152600401611fb093929190614214565b6020604051808303816000875af1158015611fcf573d6000803e3d6000fd5b505050506040513d601f19601f82011682018060405250810190611ff39190613a9a565b612032576040517f08c379a000000000000000000000000000000000000000000000000000000000815260040161202990613cc3565b60405180910390fd5b5b600081600d0160006101000a81548160ff021916908315150217905550505050565b606060006120616130d9565b905060008167ffffffffffffffff81111561207f5761207e613d85565b5b6040519080825280602002602001820160405280156120ad5781602001602082028036833780820191505090505b50905060005b82811015612158576005600082815260200190815260200160002060010160009054906101000a900473ffffffffffffffffffffffffffffffffffffffff1673ffffffffffffffffffffffffffffffffffffffff163373ffffffffffffffffffffffffffffffffffffffff161482828151811061213357612132613db4565b5b602002602001019015159081151581525050808061215090613de3565b9150506120b3565b50809250505090565b60008054906101000a900473ffffffffffffffffffffffffffffffffffffffff1681565b600060056000838152602001908152602001600020600d0160009054906101000a900460ff169050919050565b600260009054906101000a900473ffffffffffffffffffffffffffffffffffffffff1681565b600081101561221c576040517f08c379a00000000000000000000000000000000000000000000000000000000081526004016122139061389e565b60405180910390fd5b6001151560056000838152602001908152602001600020600d0160009054906101000a900460ff16151514612286576040517f08c379a000000000000000000000000000000000000000000000000000000000815260040161227d90614297565b60405180910390fd5b6005600082815260200190815260200160002060010160009054906101000a900473ffffffffffffffffffffffffffffffffffffffff1673ffffffffffffffffffffffffffffffffffffffff163373ffffffffffffffffffffffffffffffffffffffff161461232a576040517f08c379a000000000000000000000000000000000000000000000000000000000815260040161232190614329565b60405180910390fd5b60006005600083815260200190815260200160002090506000816002015411156124675760008054906101000a900473ffffffffffffffffffffffffffffffffffffffff1673ffffffffffffffffffffffffffffffffffffffff1663a9059cbb8260010160009054906101000a900473ffffffffffffffffffffffffffffffffffffffff16670de0b6b3a764000084600201546123c791906139eb565b6040518363ffffffff1660e01b81526004016123e4929190613a45565b6020604051808303816000875af1158015612403573d6000803e3d6000fd5b505050506040513d601f19601f820116820180604052508101906124279190613a9a565b612466576040517f08c379a000000000000000000000000000000000000000000000000000000000815260040161245d90614395565b60405180910390fd5b5b60008160030154111561258f57600160009054906101000a900473ffffffffffffffffffffffffffffffffffffffff1673ffffffffffffffffffffffffffffffffffffffff1663a9059cbb8260010160009054906101000a900473ffffffffffffffffffffffffffffffffffffffff16670de0b6b3a764000084600301546124ef91906139eb565b6040518363ffffffff1660e01b815260040161250c929190613a45565b6020604051808303816000875af115801561252b573d6000803e3d6000fd5b505050506040513d601f19601f8201168201806040525081019061254f9190613a9a565b61258e576040517f08c379a000000000000000000000000000000000000000000000000000000000815260040161258590614401565b60405180910390fd5b5b6000816004015411156126b757600260009054906101000a900473ffffffffffffffffffffffffffffffffffffffff1673ffffffffffffffffffffffffffffffffffffffff1663a9059cbb8260010160009054906101000a900473ffffffffffffffffffffffffffffffffffffffff16670de0b6b3a7640000846004015461261791906139eb565b6040518363ffffffff1660e01b8152600401612634929190613a45565b6020604051808303816000875af1158015612653573d6000803e3d6000fd5b505050506040513d601f19601f820116820180604052508101906126779190613a9a565b6126b6576040517f08c379a00000000000000000000000000000000000000000000000000000000081526004016126ad9061446d565b60405180910390fd5b5b6000816005015411156127df57600360009054906101000a900473ffffffffffffffffffffffffffffffffffffffff1673ffffffffffffffffffffffffffffffffffffffff1663a9059cbb8260010160009054906101000a900473ffffffffffffffffffffffffffffffffffffffff16670de0b6b3a7640000846005015461273f91906139eb565b6040518363ffffffff1660e01b815260040161275c929190613a45565b6020604051808303816000875af115801561277b573d6000803e3d6000fd5b505050506040513d601f19601f8201168201806040525081019061279f9190613a9a565b6127de576040517f08c379a00000000000000000000000000000000000000000000000000000000081526004016127d5906144d9565b60405180910390fd5b5b60008160060154111561290757600460009054906101000a900473ffffffffffffffffffffffffffffffffffffffff1673ffffffffffffffffffffffffffffffffffffffff1663a9059cbb8260010160009054906101000a900473ffffffffffffffffffffffffffffffffffffffff16670de0b6b3a7640000846006015461286791906139eb565b6040518363ffffffff1660e01b8152600401612884929190613a45565b6020604051808303816000875af11580156128a3573d6000803e3d6000fd5b505050506040513d601f19601f820116820180604052508101906128c79190613a9a565b612906576040517f08c379a00000000000000000000000000000000000000000000000000000000081526004016128fd90614545565b60405180910390fd5b5b600081600d0160006101000a81548160ff0219169083151502179055505050565b60008a11806129375750600089115b806129425750600088115b8061294d5750600087115b806129585750600086115b80156129905750600085118061296e5750600084115b806129795750600083115b806129845750600082115b8061298f5750600081115b5b6129cf576040517f08c379a00000000000000000000000000000000000000000000000000000000081526004016129c6906145b1565b60405180910390fd5b60008a1115612acb5760008054906101000a900473ffffffffffffffffffffffffffffffffffffffff1673ffffffffffffffffffffffffffffffffffffffff166323b872dd3330670de0b6b3a76400008e612a2a91906139eb565b6040518463ffffffff1660e01b8152600401612a4893929190614214565b6020604051808303816000875af1158015612a67573d6000803e3d6000fd5b505050506040513d601f19601f82011682018060405250810190612a8b9190613a9a565b612aca576040517f08c379a0000000000000000000000000000000000000000000000000000000008152600401612ac190613b13565b60405180910390fd5b5b6000891115612bc957600160009054906101000a900473ffffffffffffffffffffffffffffffffffffffff1673ffffffffffffffffffffffffffffffffffffffff166323b872dd3330670de0b6b3a76400008d612b2891906139eb565b6040518463ffffffff1660e01b8152600401612b4693929190614214565b6020604051808303816000875af1158015612b65573d6000803e3d6000fd5b505050506040513d601f19601f82011682018060405250810190612b899190613a9a565b612bc8576040517f08c379a0000000000000000000000000000000000000000000000000000000008152600401612bbf90613b7f565b60405180910390fd5b5b6000881115612cc757600260009054906101000a900473ffffffffffffffffffffffffffffffffffffffff1673ffffffffffffffffffffffffffffffffffffffff166323b872dd3330670de0b6b3a76400008c612c2691906139eb565b6040518463ffffffff1660e01b8152600401612c4493929190614214565b6020604051808303816000875af1158015612c63573d6000803e3d6000fd5b505050506040513d601f19601f82011682018060405250810190612c879190613a9a565b612cc6576040517f08c379a0000000000000000000000000000000000000000000000000000000008152600401612cbd90613beb565b60405180910390fd5b5b6000871115612dc557600360009054906101000a900473ffffffffffffffffffffffffffffffffffffffff1673ffffffffffffffffffffffffffffffffffffffff166323b872dd3330670de0b6b3a76400008b612d2491906139eb565b6040518463ffffffff1660e01b8152600401612d4293929190614214565b6020604051808303816000875af1158015612d61573d6000803e3d6000fd5b505050506040513d601f19601f82011682018060405250810190612d859190613a9a565b612dc4576040517f08c379a0000000000000000000000000000000000000000000000000000000008152600401612dbb90613cc3565b60405180910390fd5b5b6000861115612ec357600460009054906101000a900473ffffffffffffffffffffffffffffffffffffffff1673ffffffffffffffffffffffffffffffffffffffff166323b872dd3330670de0b6b3a76400008a612e2291906139eb565b6040518463ffffffff1660e01b8152600401612e4093929190614214565b6020604051808303816000875af1158015612e5f573d6000803e3d6000fd5b505050506040513d601f19601f82011682018060405250810190612e839190613a9a565b612ec2576040517f08c379a0000000000000000000000000000000000000000000000000000000008152600401612eb990613c57565b60405180910390fd5b5b6000612ecf600761327c565b9050612edb600761328a565b806005600083815260200190815260200160002060000181905550336005600083815260200190815260200160002060010160006101000a81548173ffffffffffffffffffffffffffffffffffffffff021916908373ffffffffffffffffffffffffffffffffffffffff1602179055508a60056000838152602001908152602001600020600201819055508960056000838152602001908152602001600020600301819055508860056000838152602001908152602001600020600401819055508760056000838152602001908152602001600020600501819055508660056000838152602001908152602001600020600601819055508560056000838152602001908152602001600020600701819055508460056000838152602001908152602001600020600801819055508360056000838152602001908152602001600020600901819055508260056000838152602001908152602001600020600a01819055508160056000838152602001908152602001600020600b01819055504260056000838152602001908152602001600020600c0181905550600160056000838152602001908152602001600020600d0160006101000a81548160ff02191690831515021790555060068190806001815401808255809150506001900390600052602060002001600090919091909150555050505050505050505050565b60006001600660016006805490506130f191906145d1565b8154811061310257613101613db4565b5b90600052602060002001546131179190614605565b905090565b606060008203613163576040518060400160405280600181526020017f30000000000000000000000000000000000000000000000000000000000000008152509050613277565b600082905060005b6000821461319557808061317e90613de3565b915050600a8261318e9190613d54565b915061316b565b60008167ffffffffffffffff8111156131b1576131b0613d85565b5b6040519080825280601f01601f1916602001820160405280156131e35781602001600182028036833780820191505090505b5090505b60008514613270576001826131fc91906145d1565b9150600a8561320b9190614639565b60306132179190614605565b60f81b81838151811061322d5761322c613db4565b5b60200101907effffffffffffffffffffffffffffffffffffffffffffffffffffffffffffff1916908160001a905350600a856132699190613d54565b94506131e7565b8093505050505b919050565b600081600001549050919050565b6001816000016000828254019250508190555050565b600073ffffffffffffffffffffffffffffffffffffffff82169050919050565b60006132cb826132a0565b9050919050565b6132db816132c0565b82525050565b60006020820190506132f660008301846132d2565b92915050565b600080fd5b6000819050919050565b61331481613301565b811461331f57600080fd5b50565b6000813590506133318161330b565b92915050565b60006020828403121561334d5761334c6132fc565b5b600061335b84828501613322565b91505092915050565b61336d81613301565b82525050565b600061014082019050613389600083018d613364565b613396602083018c613364565b6133a3604083018b613364565b6133b0606083018a613364565b6133bd6080830189613364565b6133ca60a0830188613364565b6133d760c0830187613364565b6133e460e0830186613364565b6133f2610100830185613364565b613400610120830184613364565b9b9a5050505050505050505050565b600060a0820190506134246000830188613364565b6134316020830187613364565b61343e6040830186613364565b61344b6060830185613364565b6134586080830184613364565b9695505050505050565b600081519050919050565b600082825260208201905092915050565b6000819050602082019050919050565b60008115159050919050565b6134a38161348e565b82525050565b60006134b5838361349a565b60208301905092915050565b6000602082019050919050565b60006134d982613462565b6134e3818561346d565b93506134ee8361347e565b8060005b8381101561351f57815161350688826134a9565b9750613511836134c1565b9250506001810190506134f2565b5085935050505092915050565b6000602082019050818103600083015261354681846134ce565b905092915050565b6135578161348e565b82525050565b6000602082019050613572600083018461354e565b92915050565b600081519050919050565b600082825260208201905092915050565b60005b838110156135b2578082015181840152602081019050613597565b60008484015250505050565b6000601f19601f8301169050919050565b60006135da82613578565b6135e48185613583565b93506135f4818560208601613594565b6135fd816135be565b840191505092915050565b6000602082019050818103600083015261362281846135cf565b905092915050565b600081519050919050565b600082825260208201905092915050565b6000819050602082019050919050565b600082825260208201905092915050565b600061367282613578565b61367c8185613656565b935061368c818560208601613594565b613695816135be565b840191505092915050565b60006136ac8383613667565b905092915050565b6000602082019050919050565b60006136cc8261362a565b6136d68185613635565b9350836020820285016136e885613646565b8060005b85811015613724578484038952815161370585826136a0565b9450613710836136b4565b925060208a019950506001810190506136ec565b50829750879550505050505092915050565b6000602082019050818103600083015261375081846136c1565b905092915050565b6000806000806000806000806000806101408b8d03121561377c5761377b6132fc565b5b600061378a8d828e01613322565b9a5050602061379b8d828e01613322565b99505060406137ac8d828e01613322565b98505060606137bd8d828e01613322565b97505060806137ce8d828e01613322565b96505060a06137df8d828e01613322565b95505060c06137f08d828e01613322565b94505060e06138018d828e01613322565b9350506101006138138d828e01613322565b9250506101206138258d828e01613322565b9150509295989b9194979a5092959850565b600060208201905061384c6000830184613364565b92915050565b7f4f6666657220646f6573206e6f74206578697374000000000000000000000000600082015250565b6000613888601483613583565b915061389382613852565b602082019050919050565b600060208201905081810360008301526138b78161387b565b9050919050565b7f6f66666572206e6f7420617661696c61626c6500000000000000000000000000600082015250565b60006138f4601383613583565b91506138ff826138be565b602082019050919050565b60006020820190508181036000830152613923816138e7565b9050919050565b7f796f752063616e207769746864726177206f6e6c7920796f7572206f776e206f60008201527f6666657200000000000000000000000000000000000000000000000000000000602082015250565b6000613986602483613583565b91506139918261392a565b604082019050919050565b600060208201905081810360008301526139b581613979565b9050919050565b7f4e487b7100000000000000000000000000000000000000000000000000000000600052601160045260246000fd5b60006139f682613301565b9150613a0183613301565b9250817fffffffffffffffffffffffffffffffffffffffffffffffffffffffffffffffff0483118215151615613a3a57613a396139bc565b5b828202905092915050565b6000604082019050613a5a60008301856132d2565b613a676020830184613364565b9392505050565b613a778161348e565b8114613a8257600080fd5b50565b600081519050613a9481613a6e565b92915050565b600060208284031215613ab057613aaf6132fc565b5b6000613abe84828501613a85565b91505092915050565b7f5472616e73666572206f6620746f6b656e31206661696c656400000000000000600082015250565b6000613afd601983613583565b9150613b0882613ac7565b602082019050919050565b60006020820190508181036000830152613b2c81613af0565b9050919050565b7f5472616e73666572206f6620746f6b656e32206661696c656400000000000000600082015250565b6000613b69601983613583565b9150613b7482613b33565b602082019050919050565b60006020820190508181036000830152613b9881613b5c565b9050919050565b7f5472616e73666572206f6620746f6b656e33206661696c656400000000000000600082015250565b6000613bd5601983613583565b9150613be082613b9f565b602082019050919050565b60006020820190508181036000830152613c0481613bc8565b9050919050565b7f5472616e73666572206f6620746f6b656e34206661696c656400000000000000600082015250565b6000613c41601983613583565b9150613c4c82613c0b565b602082019050919050565b60006020820190508181036000830152613c7081613c34565b9050919050565b7f5472616e73666572206f6620746f6b656e35206661696c656400000000000000600082015250565b6000613cad601983613583565b9150613cb882613c77565b602082019050919050565b60006020820190508181036000830152613cdc81613ca0565b9050919050565b600081519050613cf28161330b565b92915050565b600060208284031215613d0e57613d0d6132fc565b5b6000613d1c84828501613ce3565b91505092915050565b7f4e487b7100000000000000000000000000000000000000000000000000000000600052601260045260246000fd5b6000613d5f82613301565b9150613d6a83613301565b925082613d7a57613d79613d25565b5b828204905092915050565b7f4e487b7100000000000000000000000000000000000000000000000000000000600052604160045260246000fd5b7f4e487b7100000000000000000000000000000000000000000000000000000000600052603260045260246000fd5b6000613dee82613301565b91507fffffffffffffffffffffffffffffffffffffffffffffffffffffffffffffffff8203613e2057613e1f6139bc565b5b600182019050919050565b600081905092915050565b6000613e4182613578565b613e4b8185613e2b565b9350613e5b818560208601613594565b80840191505092915050565b7f20574f4f44200000000000000000000000000000000000000000000000000000600082015250565b6000613e9d600683613e2b565b9150613ea882613e67565b600682019050919050565b6000613ebf8285613e36565b9150613ecb8284613e36565b9150613ed682613e90565b91508190509392505050565b7f20524f434b200000000000000000000000000000000000000000000000000000600082015250565b6000613f18600683613e2b565b9150613f2382613ee2565b600682019050919050565b6000613f3a8285613e36565b9150613f468284613e36565b9150613f5182613f0b565b91508190509392505050565b7f20434c4159200000000000000000000000000000000000000000000000000000600082015250565b6000613f93600683613e2b565b9150613f9e82613f5d565b600682019050919050565b6000613fb58285613e36565b9150613fc18284613e36565b9150613fcc82613f86565b91508190509392505050565b7f20574f4f4c200000000000000000000000000000000000000000000000000000600082015250565b600061400e600683613e2b565b915061401982613fd8565b600682019050919050565b60006140308285613e36565b915061403c8284613e36565b915061404782614001565b91508190509392505050565b7f2046495348200000000000000000000000000000000000000000000000000000600082015250565b6000614089600683613e2b565b915061409482614053565b600682019050919050565b60006140ab8285613e36565b91506140b78284613e36565b91506140c28261407c565b91508190509392505050565b7f666f722000000000000000000000000000000000000000000000000000000000600082015250565b6000614104600483613e2b565b915061410f826140ce565b600482019050919050565b60006141268284613e36565b9150614131826140f7565b915081905092915050565b7f496e76616c6964204f6666657200000000000000000000000000000000000000600082015250565b6000614172600d83613583565b915061417d8261413c565b602082019050919050565b600060208201905081810360008301526141a181614165565b9050919050565b7f596f752063616e6e6f742061636365707420796f7572206f776e206f66666572600082015250565b60006141de602083613583565b91506141e9826141a8565b602082019050919050565b6000602082019050818103600083015261420d816141d1565b9050919050565b600060608201905061422960008301866132d2565b61423660208301856132d2565b6142436040830184613364565b949350505050565b7f4f66666572206973206e6f742061637469766500000000000000000000000000600082015250565b6000614281601383613583565b915061428c8261424b565b602082019050919050565b600060208201905081810360008301526142b081614274565b9050919050565b7f596f752063616e206f6e6c792063616e63656c20796f7572206f776e206f666660008201527f6572000000000000000000000000000000000000000000000000000000000000602082015250565b6000614313602283613583565b915061431e826142b7565b604082019050919050565b6000602082019050818103600083015261434281614306565b9050919050565b7f546f6b656e31207472616e73666572206661696c656400000000000000000000600082015250565b600061437f601683613583565b915061438a82614349565b602082019050919050565b600060208201905081810360008301526143ae81614372565b9050919050565b7f546f6b656e32207472616e73666572206661696c656400000000000000000000600082015250565b60006143eb601683613583565b91506143f6826143b5565b602082019050919050565b6000602082019050818103600083015261441a816143de565b9050919050565b7f546f6b656e33207472616e73666572206661696c656400000000000000000000600082015250565b6000614457601683613583565b915061446282614421565b602082019050919050565b600060208201905081810360008301526144868161444a565b9050919050565b7f546f6b656e34207472616e73666572206661696c656400000000000000000000600082015250565b60006144c3601683613583565b91506144ce8261448d565b602082019050919050565b600060208201905081810360008301526144f2816144b6565b9050919050565b7f546f6b656e35207472616e73666572206661696c656400000000000000000000600082015250565b600061452f601683613583565b915061453a826144f9565b602082019050919050565b6000602082019050818103600083015261455e81614522565b9050919050565b7f4f6666657220496e76616c696400000000000000000000000000000000000000600082015250565b600061459b600d83613583565b91506145a682614565565b602082019050919050565b600060208201905081810360008301526145ca8161458e565b9050919050565b60006145dc82613301565b91506145e783613301565b92508282039050818111156145ff576145fe6139bc565b5b92915050565b600061461082613301565b915061461b83613301565b9250828201905080821115614633576146326139bc565b5b92915050565b600061464482613301565b915061464f83613301565b92508261465f5761465e613d25565b5b82820690509291505056fea2646970667358221220ee48d85573f0654bb56cb1552cb9e94a0ab7eaa281c251b54977c407ae23dc8e64736f6c63430008100033",
  "linkReferences": {},
  "deployedLinkReferences": {}
}